:100000000C9454000C947C000C947C000C947C00A8
:100010000C947C000C947C000C947C000C947C0070
:100020000C947C000C94CA080C947C000C947C000A
:100030000C947C000C949A050C947C000C947C002D
:100040000C947C000C947C000C947C000C947C0040
:100050000C947C000C947C000C947C000C947C0030
:100060000C947C000C947C006333323E6433323E4B
:100070006533323E6633323E6733323E6133323E61
:10008000623332006433323E6333323E6433323E95
:10009000633332006333323E6433323E6333323E85
:1000A000643332009409950911241FBECFEFD8E0C4
:1000B000DEBFCDBF11E0A0E0B1E0E4E9F4E202C0B0
:1000C00005900D92A235B107D9F711E0A2E5B1E094
:1000D00001C01D92A93CB107E1F710E0C6EAD0E0EB
:1000E00004C02297FE010E94FD10C43AD107C9F74F
:1000F0000E9479010C943D120C9400000F931F9301
:10010000CF93DF93EC018C010B5F1F4F41E0B801EF
:100110000E948A098B8D9C8D298D3A8DB901680FBB
:10012000791F821B930BF801DE011F9641915191BB
:100130004617570730F0208531852F5F3F4F3187B5
:1001400020874817590710F411861086EA17FB0715
:1001500069F72F8538898D8D9E8D8217930730F42E
:1001600081E08F8F84E990E00E94F9052F89388D16
:100170008D8D9E8D8217930730F481E088A384E8EB
:1001800090E00E94F9058D8D9E8D2F85388982170C
:10019000930738F42F89388D8217930710F481E084
:1001A00089A3DF91CF911F910F910895A0E0B0E056
:1001B000ECEDF0E00C94BB10EC01E12CF12C5C01B7
:1001C0008EE1A80EB11C4E0183E2880E911C8DAD0C
:1001D000882331F08EAD882319F08FAD811183C053
:1001E000C5010E947E0020E041E0B401C5010E94EB
:1001F0008F09BC01605D77408E859F856B01C81AB1
:10020000D90A08891989060F171F198B088B7F8750
:100210006E87882777FD8095982F0E94590F288137
:1002200039814A815B810E94E50F2B013C01B801B5
:10023000882777FD8095982F0E94590F2C813D814A
:100240004E815F810E94E50F9B01AC01C301B201A9
:100250000E94C20E2B013C01B601882777FD8095D4
:10026000982F0E94590F288539854A855B850E9401
:10027000E50F9B01AC01C301B2010E94C20E0E94B6
:10028000260F4C855D85461757070CF4BA01882761
:100290009927841B950B9B01681779070CF49C0127
:1002A00037FF09C0CA01820F931F98A38F8F5AA3EB
:1002B00049A3BA0108C0BA01621B730B58A34F8F40
:1002C0007AA369A3CA010E94890882E0E816F104B2
:1002D0000CF47DCF80E391E00E942607CDB7DEB716
:1002E000E0E10C94D7108FEFE81AF80A1DAE1EAEAD
:1002F00077CFA2E6B0E0EFE7F1E00C94C31088E618
:1003000090E00E94F90524961FAE1EAE2497269613
:100310001FAE1EAE269784E690E06C969FAF8EAF20
:100320006C978AEF90E06E969FAF8EAF6E9783E2E8
:1003300090E0A0969FAF8EAFA097A1961FAEA19719
:10034000A2961FAEA297A3961FAEA39762961FAE6A
:100350001EAE629764961FAE1EAE649766961FAE81
:100360001EAE669768961FAE1EAE68976A961FAE61
:100370001EAE6A9760E088EE93E00E944E09CE01BF
:100380008F5B9F4F0E94800980E10E94BF0881110E
:1003900013C00E940F078AE391E00E94260761E0E4
:1003A00080E00E948A0782E491E00E94260784E6AA
:1003B00090E00E941209E8CF84EF91E00E941209B8
:1003C00084EF91E00E9412090CEE1FEF88EDE82EF9
:1003D000FF24FA9498E2C92ED12C0832110568F056
:1003E0002496DFAECEAE24972696FFAEEEAE2697CD
:1003F00068ED7FEF88E290E00CC02496FFAEEEAE91
:1004000024972696DFAECEAE269768E270E088EDA0
:100410009FEF0E94890861E0CE018F5B9F4F0E9491
:10042000850984E190E00E9412090F5F1F4F0C3391
:10043000110599F624961FAE1EAE249726961FAE80
:100440001EAE269760E070E080E090E00E94890890
:1004500004E610E080E10E94BF0881115BC00E94A9
:100460000F078AE491E00E94260761E080E00E9485
:100470008A07CE018F5B9F4F0E947E0028968EAD2B
:100480009FAD2897B8010E94641080E090E00E9420
:10049000670761E081E00E948A072A968EAD9FADD2
:1004A0002A97B8010E94641080E090E00E946707DC
:1004B00061E082E00E948A072C968EAD9FAD2C975A
:1004C000B8010E94641080E090E00E94670761E03C
:1004D00083E00E948A072E968EAD9FAD2E97B801BD
:1004E0000E94641080E090E00E94670761E084E071
:1004F0000E948A0760968EAD9FAD6097B8010E94FA
:10050000641080E090E00E94670784E690E00E941B
:100510001209A0CF84EF91E00E94120980E090E0E0
:10052000A0EAB1E489839A83AB83BC8380E090E442
:10053000ACE1B6E48D839E83AF83B88780E090E022
:10054000A0ECBFE389879A87AB87BC8782E390E002
:100550009E878D87188A1F861A8A198A1C8A1B8A89
:1005600082E2FE01EF5BFF4FDE015F9601900D928C
:100570008A95E1F7CE0101960E94D60024961FAE1F
:100580001EAE249726961FAE1EAE269760E070E042
:1005900080E090E00E948908FFCF90915701E091A0
:1005A0005301F0915401992311F0849101C080818D
:1005B000282F21542A3110F4805E0895803271F47E
:1005C0002091530130915401A9014F5F5F4F509327
:1005D0005401409353012115310509F70895EF9215
:1005E000FF92CF93DF930E94CD02C0E0D0E01BC00A
:1005F0009E01220F331F93E0CC0FDD1F9A95E1F788
:10060000C20FD31F992787FD9095C80FD91FE09778
:1006100080915301909154010196909354018093DD
:1006200053010E94CD02982F90539A3008F3CE01C7
:10063000DF91CF91FF90EF90089510926F0083E2C9
:100640008093800081E1809381001092820080E19C
:1006500097E2909389008093880010928B0010920B
:100660008A00229A7894089580915201882329F46F
:1006700081E0809352010E941D030895A0E0B0E044
:10068000E4E4F3E00C94BF108C015B01E42E0E94C3
:1006900034031092010117FF04C01F77AAE0FA2E5D
:1006A00002C0FF24F394C0908100DD2428EFC22211
:1006B000DD2488EC3F2D389FC0011124801791075D
:1006C000D8F4E80167E20131160710F0C0E1D7E283
:1006D000BE017695679580E090E060587946874640
:1006E0009F4F9E0140E050E00E947810890181E018
:1006F00090E0C82AD92A2CC098E2F99E902D1124A6
:1007000080E0892EE4014E01982EE40180169106C6
:1007100008F4E801BE01769567959E0140E050E03F
:100720008F2D8A3039F480E090E0605E734481441C
:100730009F4F06C080E090E060537D4E8C4E9F4FEF
:100740000E947810890152E0852E912CC828D92862
:100750002F2D2A3039F4CE0105966AE070E00E9410
:100760006410EB0133E0C83ED30779F0BE0180E0AE
:1007700090E0950140E050E00E94481028EE33E000
:1007800040E050E00E949A1001C0950110926F0065
:10079000C0928100109389000093880040918800E6
:1007A000509189006E2D603108F06FE080E190E09B
:1007B000861B9109BA0102C0769567958A95E2F782
:1007C00070938B0060938A0030935A0120935901F3
:1007D00086B38FEF86BB81E080936F00CDB7DEB725
:1007E000ECE00C94DB109B018F3F11F0442329F4C3
:1007F00088EE93E0B90140E049C0813130F0582FD4
:100800005051503618F05FE501C050E0852F6CE084
:100810000E945810A82FB0E0E4EFFFEFAE9FB001A8
:10082000AF9F700DBE9F700D1124650F711D6C3050
:10083000710540F4FB01EE0FFF1FE55FFE4F608185
:10084000718102C060E070E0873081F0082E02C044
:10085000660F771F0A94E2F7823028F0CB010596E5
:100860006AE070E00CC0605070480BC0CB01B6E08D
:10087000880F991FBA95E1F7029665E070E00E9433
:100880006410403108F04FE0CB01B9010E943E03F3
:100890000895A0E0B0E0EFE4F4E00C94BE10B09056
:1008A000020180915501882361F060915601662311
:1008B00041F08FEF70E040E00E94F3031092560188
:1008C00034C1C0ECDDE5AA24A39414E0712E00ED40
:1008D00017E0B4E0EB2EF12CA4EFCA2EA1E0DA2E43
:1008E000FFE08F2E912C0E94CD0220915301309178
:1008F00054012F5F3F4F30935401209353018636AC
:10090000F1F18736CCF4823609F4AFC083367CF43B
:100910008E3349F18F333CF4813209F487C08C3334
:1009200009F09BC022C0813609F097C09BC0843675
:1009300001F185360CF51BC08F3609F447C08037AE
:1009400044F48C3611F18D3661F1873609F085C09B
:1009500019C0843709F444C0863709F460C082376F
:1009600009F07BC039C0B394BECFBA94BCCFEE249B
:1009700035C0EE2482E07BC0EE2484E078C0EE2413
:1009800085E075C0EE2487E072C00E94EF02BC01D2
:1009900090930401809303018091050190910601D9
:1009A00037C00E94CD028C3619F41092550104C054
:1009B000A0925501109256018091530190915401DB
:1009C000019690935401809353018DCF0E94EF02C2
:1009D000B82E8093020187CFEE24E39480E047C0D5
:1009E0000E94EF02BC01CE010E946410CB01880F6F
:1009F000991F53E0660F771F5A95E1F7860F971FEF
:100A000090930601809305016091030170910401A8
:100A10000E946410709308016093070164CF0E94E4
:100A2000EF0290930A01809309015DCF7092020159
:100A30001093060100930501F0920401E092030176
:100A4000D0920801C092070190920A018092090198
:100A50001092550144E0B42E46CF109254011092EA
:100A6000530163C0EE2489E002C0EE248BE09CE0D9
:100A7000B99EB02C1124B80E0E94CD028B3211F019
:100A80008332B9F48091530190915401019690936F
:100A9000540180935301B394EFCF8091530190910F
:100AA000540101969093540180935301BA940E948B
:100AB000CD028D3291F3C0910701D091080181538D
:100AC000883058F4C0910501D09106010E94EF02D0
:100AD000BC01CE010E946410EB018E010BC080911D
:100AE00053019091540101969093540180935301C6
:100AF000C00FD11F169507950E94CD028E3279F353
:100B000080915501882339F0CE0196958795809381
:100B10005601C81BD109EE2011F0BB24BA948B2DCD
:100B2000BE01409109010E94F303CDB7DEB7EDE0AD
:100B30000C94DA101F920F920FB60F9211242F937C
:100B40003F934F935F936F937F938F939F93AF9355
:100B5000BF93EF93FF938091590190915A019C01AB
:100B60002150304030935A0120935901009711F5DC
:100B700010926F00789480918100887F81608093CB
:100B8000810080E197E29093890080938800109221
:100B90008B0010928A0081E08093010180915301C3
:100BA00090915401009731F080915801882311F4FD
:100BB0000E944904FF91EF91BF91AF919F918F9156
:100BC0007F916F915F914F913F912F910F900FBE49
:100BD0000F901F90189510926F009093540180937E
:100BE000530181E080935701109256010E944904FD
:100BF00008950E94EB05089581E090E06F9364E012
:100C00006A95F1F76F910197C9F708950F931F93B4
:100C1000CF93DF931AB157985A98289AC0E0D0E042
:100C20000E94FC055C9A0E94FC0509B15C980E9438
:100C3000FC055C9A0E94FC055C9807FF11C0249695
:100C40009E0140E050E080915F0190916001A09191
:100C50006101B0916201281739074A075B0700F369
:100C60001AB9DF91CF911F910F91089565B190E06E
:100C7000AC0141705070440F551F9C0126703070BC
:100C800053E0220F331F5A95E1F7242B6D7C262B5E
:100C900025B92BB18870907034E0880F991F3A9570
:100CA000E1F72F77282B2BB95C9A0E94FC055C9802
:100CB0000E94FC050895A2E0B0E0E1E6F6E00C94A5
:100CC000C410182F4A8369830E94D9060E94060621
:100CD000F4B005B1DAB0EBB0289869814A81662397
:100CE00011F05A9A01C05A9884B1826384B9579A14
:100CF000413029F0812F82958F700E943606812F16
:100D00008F700E943606DAB8EBB8F4B805B92296AF
:100D1000E7E00C94E01060E042E00E945B0608957A
:100D200061E042E00E945B06089560E041E00E94BD
:100D30005B06089580E197E2A0E0B0E080935F0158
:100D400090936001A0936101B0936201529A209A3E
:100D5000549A8EE190E00E94120983E00E94950669
:100D600086E090E00E94120983E00E94950682E0EE
:100D700090E00E94120983E00E94950682E090E0D4
:100D80000E94120982E00E94950682E090E00E9493
:100D9000120988E20E948B0688E00E948B0681E09F
:100DA0000E948B0686E00E948B068CE00E948B06D8
:100DB000089580916301882329F481E08093630181
:100DC0000E949A06089581E00E948B0680915B0143
:100DD00090915C01009711F1A0E0B0E208C0E091B1
:100DE0005B01F0915C01E20FF31FB083AF5F2A2F2C
:100DF00030E08091230190E001976091240170E040
:100E0000869FA001879F500D969F500D1124241797
:100E100035072CF310925E0110925D0108950E9437
:100E2000E3060895EF92FF92CF93DF93E82EE70158
:100E30007E01F92EE70102C00E9490068991882365
:100E4000D9F7DF91CF91FF90EF9008950E9412079C
:100E50000895AAE0B0E0EFE2F7E00C94C1109B0126
:100E6000AC011AE0EAE0CE2ED12CE12CF12C5E018F
:100E70000894A11CB11C022FCA01B901A701960157
:100E80000E9478101150F501E10FF11D005D922FC5
:100E9000990F892F880F880F890F081B0083211550
:100EA00031054105510539F708C0F601E10FF11D83
:100EB00080810E9490061F5F04C06E010894C11CCF
:100EC000D11C1A3090F32A96EAE00C94DD100E94AF
:100ED00029070895A5E0B0E0E0E7F7E00C94C8101A
:100EE000182F80E8898380EC8A8384E98B8384EDE2
:100EF0008C83FE01E60FF11D8181810F6D830E94BD
:100F00008B0610935E016D8160935D012596E3E091
:100F10000C94E4100E946A070895FC01118210826B
:100F200013821282158214821682683068F489E274
:100F300090E0918380838BE290E0938382838AE2C6
:100F400090E09583848311C06E30C0F483E290E01A
:100F50009183808385E290E09383828384E290E0B2
:100F60009583848370E06850704081E090E002C017
:100F7000880F991F6A95E2F7868308956531B8F462
:100F800086E290E09183808388E290E0938382837D
:100F900087E290E09583848370E06E50704081E03A
:100FA00090E002C0880F991F6A95E2F78683089542
:100FB000FC01A481B5818681662321F09C91982B48
:100FC0009C9308959C91809589238C930895FC01AE
:100FD0006F3F31F4A281B3818C91968189270CC037
:100FE000A281B3818681662321F09C91982B9C93EA
:100FF00008959C91809589238C930895A7E0B0E093
:10100000E4E0F8E00C94C610282FF62E8E010F5F56
:101010001F4FC801622F0E948D07C8016F2D0E94CB
:10102000E707C80161E00E94D8072796E5E00C9425
:10103000E210E0EBF0E083EF8083808184BDE1EBA0
:10104000F0E082E08083808185BDE4EBF0E01082F7
:101050008081E3EBF0E08083808188BD88B587BD27
:1010600086E060E00E94FE0785E060E00E94FE07E7
:101070008BE060E00E94FE0783E060E00E94FE07D4
:10108000089580916401882329F481E080936401AC
:101090000E9419080895CF93DF93EC010E94410844
:1010A000D7FF05C0D095C195DF4F81E001C080E03A
:1010B000CF3FD10519F014F0CFEFD0E0882319F01D
:1010C00018BCC7BD02C0C8BD17BCDF91CF91089541
:1010D000CF93DF93EC010E944108D7FF05C0D09564
:1010E000C195DF4F81E001C080E0CF3FD10519F00D
:1010F00014F0CFEFD0E0882329F01092B400C09311
:10110000B30004C0C093B4001092B300DF91CF913C
:101110000895CF93DF93EB010E944B08CE010E940C
:101120006808DF91CF91089584B18D7C84B985B131
:10113000826385B985E090E06F9364E06A95F1F78A
:101140006F910197C9F7089580916501882329F46B
:1011500081E0809365010E9494080895A1E0B0E0C9
:10116000E4EBF8E00C94C91089830E94A40893B1C1
:101170009095898189232196E2E00C94E5100E94E4
:10118000AE0808956F9364E06A95F1F76F91019747
:10119000C9F708952F928F939F932FB68091730173
:1011A000909174010196809373019093740190E083
:1011B00080917501891F8093750190917B019C5FDF
:1011C00090937B0180917A0180519742C0F0909377
:1011D0007B0180937A01809176019091770101964D
:1011E000809376019093770190E080917801891F38
:1011F0008093780180917901891F809379012FBEB6
:101200009F918F912F901895CF93DF93EC0105C09C
:1012100088EE93E00E94C20821972097C9F7DF91DA
:10122000CF9108950E9404090895E0E7F0E08081DD
:101230008E7F8083A0EBB0E08C9183608C93A1EBD8
:10124000B0E08C91807F8C938C9182608C93B89A63
:101250008081816080837894089580917C018823C7
:1012600029F481E080937C010E94150908950E9471
:101270002D09E0E7F0E080818E7F80831092760177
:1012800010927701109278011092790110927B01EF
:1012900010927A0180818160808308950F93DF939B
:1012A000CF9300D000D00F92CDB7DEB79C01962F20
:1012B000DE011196E5E2F1E085E001900D928150AA
:1012C000E1F7BE016F5F7F4F992329F08DE791E031
:1012D00045E00FEF04C08DE791E045E003E10E9497
:1012E000F8098DE791E00E94CF090E9437090F901D
:1012F0000F900F900F900F90CF91DF910F91089565
:101300008DE791E00E94E40908958DE791E00E9445
:101310007F0E08958DE791E00E94190C08958DE7E6
:1013200091E00E94DD0C089508958DE791E00E9400
:10133000A30E08956F9364E06A95F1F76F9101979A
:10134000C9F70895A7E0B0E0E8EAF9E00C94C71007
:101350008C01FC0111821082138212821582148288
:1013600017821682613118F080E1808702C0FC018B
:101370006087F801208BCE010196642F0E948D07B3
:101380008F81F80181878B819C81938782878D81F2
:101390009E81958784872796E4E00C94E310FC01F6
:1013A000A485B585109779F08C919185892B8C93C4
:1013B000A285B3859C918185809589238C9388EC47
:1013C00090E00E949A090895FC01A485B5851097C4
:1013D00071F08C919185892B8C93A285B3858C912A
:1013E0009185892B8C9388EC90E00E949A0908954E
:1013F000A7E0B0E0EEEFF9E00C94B9107C011B011E
:10140000642F3901402F20E00E94A20997012F5B31
:101410003F4FF9011082D701AE5BBF4F1C92C7014D
:101420008D5B9F4FFC011082F701778666866624EC
:101430002E010894411C511C6C015D01490129C019
:10144000062D10E0F101E00FF11FC20160810E9442
:101450008D072F81F701E00FF11F218B89819A8180
:10146000F801EE0FFF1FEE0DFF1D92A381A3833243
:10147000910511F4F40109C08632910511F4F501CA
:1014800004C08932910521F4F6018081822B80838A
:101490006394F7018085681698F22796E2E10C9430
:1014A000D510A0E0B0E0E7E5FAE00C94BE10EC0146
:1014B0005B01FC01EF5BFF4F9080FC01EE5BFF4F97
:1014C0008080FC01ED5BFF4F708080E009C0E82F59
:1014D000F0E0EE0FFF1FEA0DFB1D118210828F5FFF
:1014E00098858917A0F384B121E4E22EF12CEC0E4B
:1014F000FD1ED7019C91892B84B987B18E010E5BAB
:101500001F4FF8019081892B87B98AB193E4C92EC6
:10151000D12CCC0EDD1ED6019C91892B8AB985B1C8
:10152000F7019081892B85B988B1D8019C91892BCD
:1015300088B98BB1F6019081892B8BB98AE090E054
:101540000E949A0994B1D7018C918095892384B91E
:1015500097B1F80180818095892387B99AB1D60126
:101560008C91809589238AB995B1F7018081809506
:10157000892385B998B1D8018C918095892388B940
:101580009BB1F6018081809589238BB9C090B00012
:10159000E090B1008091B00083608093B00082E061
:1015A0008093B1000091B20080E090E039C02091BA
:1015B000B200201B820F911D020FF3B0F91409F045
:1015C0004DC096B0981409F049C029B1271509F00B
:1015D00045C024C0212F30E0A901440F551FF5015B
:1015E000E40FF51F608171816115710599F44C0F4D
:1015F0005D1FDA0191964D915C919297DA014C91C1
:101600002C0F3D1FD90151962C915197422311F473
:10161000918380831F5F28851217E0F2892C9F2C0D
:101620002E853F858217930710F2C092B000E0929A
:10163000B10020E00FC0E22FF0E0EE0FFF1FEA0D37
:10164000FB1D80819181009721F48E859F85918378
:1016500080832F5F8885281770F305C0F3B096B09C
:1016600079B010E0D8CFCDB7DEB7EDE00C94DA104A
:10167000EF92FF920F931F93CF93DF93FC019B0197
:1016800000917C0010917A00E7B0F8B080917A0068
:1016900086FDFCCF80E00AC0A82FB0E0AA0FBB1FD8
:1016A000A20FB31F11961C921E928F5F908589170F
:1016B00098F397B182A18095892387B998B182A1C7
:1016C0008095892388B987E880937A0070E029C0E3
:1016D000DF01A60FB11D51968C91519780648093C4
:1016E0007C0080917A00806480937A0080917A00F7
:1016F00086FDFCCFA62FB0E0AA0FBB1FA20FB31F21
:1017000040917800509179008D919C911197840FB0
:10171000951F11969C938E936F5F80856817C0F21A
:101720007F5F81A1781710F460E0F7CF40E014C02C
:10173000C42FD0E0CC0FDD1FC20FD31F61A170E01A
:10174000CB0195958795A881B9818A0F9B1F0E942F
:101750006410798368834F5F8085481748F300934E
:101760007C0010937A00F8B8E7B8CDB7DEB7E6E0B2
:101770000C94E110A0E2B0E0E0ECFBE00C94C410AB
:101780008C017B01D42E842F8150823018F4C80143
:101790000E94E409D80150968C915097882389F4CF
:1017A000C801B7010E94510AC8010E94CF09BD2D8E
:1017B000B230D9F5C801BE016F5F7F4F0E94510A58
:1017C00010C0C801B7010E94380BC8010E94CF09A0
:1017D000ED2DE23051F5C801BE016F5F7F4F0E94D1
:1017E000380B60E0AE014F5F5F4F1BC0862F90E06B
:1017F000880F991FF701E80FF91F840F951FD80173
:101800001E962D913C911F97DC018D919C91119713
:10181000281B390B80819181820F931F91838083D4
:101820006F5FF8018085681708F3A096E7E00C94D5
:10183000E0108F929F92AF92BF92CF92DF92FF9271
:101840000F931F93CF93DF93EC01C62E072FF42E37
:10185000423011F0FF2051F48C819D81009709F4F2
:10186000A0C08E819F81009709F49BC08F2D81506D
:10187000823050F488819981009709F492C08A815E
:101880009B81009709F48DC0CE016C2D702F4F2DD8
:101890000E94BA0BAC2CB02E00E010E088249924F2
:1018A0007AC08F2D813059F4EA81FB81E00FF11F5E
:1018B000C080D180E881F981E00FF11F0DC08C81DB
:1018C0009D81FF2061F4EE81FF81E00FF11FC08058
:1018D000D180800F911FFC01408151812BC0800F6E
:1018E000911FFC0180819181E881F981E00FF11F56
:1018F00040815181CE84DF848417950710F4A601BE
:1019000004C04C0D5D1D481B590BEE81FF81E00F9B
:10191000F11F80819181EA81FB81E00FF11F20811D
:101920003181CE84DF848217930720F0C20ED31E4C
:10193000C81AD90AC41AD50AD1F0F501608171819B
:1019400080E090E09A0140E050E0621B730B840B52
:10195000950B28EE33E040E050E00E9448109601DD
:1019600040E050E00E949A1037FD0AC002C020E01B
:1019700030E0F3E0293E3F072CF028EE33E002C0D0
:1019800020E030E0F501219331935F010894811C40
:10199000911C0E5F1F4F888590E0881699060CF405
:1019A00080CFDF91CF911F910F91FF90DF90CF906B
:1019B000BF90AF909F908F900895A5E0B0E0E3EEC8
:1019C000FCE00C94B9104C01C62EE72E2D830E942A
:1019D000190CD40118964C901897DE2C642D70E0E9
:1019E00080E090E028EE33E040E050E00E944810B4
:1019F00069837A838B839C83EE24FF24870166248A
:101A00007724882499245401552436C0F601308166
:101A1000218142E0242E312CC20CD31CC901492F54
:101A2000582F1A012D81222329F088EE93E0821984
:101A300093091C0199EC291631042CF4A3E32A160E
:101A4000310494F002C055245394B101882777FDE6
:101A50008095982FA80197010E944810860E971E26
:101A6000A81EB91E620C731C88EE93E0A0E0B0E0E3
:101A7000E80EF91E0A1F1B1F89819A81AB81BC8168
:101A8000E816F9060A071B0709F65520F1F4552454
:101A900008944108510824EF31E0429EC001439E62
:101AA000900D529E900D11242091C1013091C201E0
:101AB00028173907B4F088EE93E0489E9001499EBC
:101AC000300D589E300D11240EC0930140E050E0BF
:101AD000C501B4010E9478102093C1013093C20166
:101AE00002C020E030E0C9012596E2E10C94D51057
:101AF000A7E6B0E0EEE7FDE00C94B9108C014B01D5
:101B00006A01A6962FAFA697DA018D919C91119745
:101B10000097E9F4F801808590E0880F991F0E94F2
:101B20001011D60111969C938E93009709F4E2C090
:101B3000FC0180E090E003C0119211920196D8015F
:101B400018962C91189730E082179307ACF3F401A4
:101B500080819181009789F0EE24FF245E01089432
:101B6000A11CB11CB1E46B2E712C6C0E7D1EA1E288
:101B70004A2E512C4C0E5D1E23C0D80118968C9114
:101B800090E0880F991F0E941011F40191838083C7
:101B9000009709F4AFC0FC0180E090E0D80107C0D5
:101BA0001E962D913C911F97219331930196189683
:101BB0002C91189730E08217930794F38D01CCCFC6
:101BC000C801B501A6964FADA6970E94BA0BD801E1
:101BD00018968C911897E82FF0E0A596FFAFEEAF1E
:101BE000A5971301F501A3965FAE4EAEA39793019F
:101BF00040E050E0A8965FAE4EAEA89737C0E11423
:101C0000F10461F0A896AEADBFADA8976D917C913F
:101C10001197808191816817790760F480819181A3
:101C2000A896AEADBFADA89711969C938E93E11484
:101C3000F10449F0D9016D917C91119780819181D6
:101C40008617970728F480819181D9018D939C9301
:101C50004F5F5F4F2E5F3F4F3296A8968EAD9FAD80
:101C6000A8970296A8969FAF8EAFA897A596AEADFF
:101C7000BFADA5974A175B0714F20894E11CF11C4D
:101C8000BAE0EB16F10409F09BCF80E090E02CC0A5
:101C9000F101419151911F01BC01660F771FD601DF
:101CA000ED91FC911197E60FF71F208131812417E8
:101CB000350710F451834083A396EEADFFADA39793
:101CC00041915191A396FFAFEEAFA397D401ED914F
:101CD000FC911197E60FF71F2081318142175307BE
:101CE00010F4518340830196F801208530E082177B
:101CF000930774F2C959DF4FE2E10C94D5101F939A
:101D0000CF93DF93EC01162F862F8150823058F449
:101D1000AE014E5F5F4FCE01BE0121E00E94780D03
:101D2000123019F00CC0662351F4BE016C5F7F4F76
:101D3000AE014A5F5F4FCE0120E00E94780DDF9137
:101D4000CF911F910895CF93DF93EC018A819B81FE
:101D5000009711F00E94A5118E819F81009711F0CC
:101D60000E94A51188819981009711F00E94A51108
:101D70008C819D81009711F00E94A511DF91CF9178
:101D800008955058BB27AA270ED0E5C0D6D030F012
:101D9000DBD020F031F49F3F11F41EF4CBC00EF4E1
:101DA000E095E7FBC1C0E92FE7D080F3BA176207DF
:101DB00073078407950718F071F49EF5FFC00EF4C1
:101DC000E0950B2EBA2FA02D0B01B90190010C014B
:101DD000CA01A0011124FF27591B99F0593F50F463
:101DE000503E68F11A16F040A22F232F342F4427BB
:101DF000585FF3CF469537952795A795F0405395B3
:101E0000C9F77EF41F16BA0B620B730B840BBAF082
:101E10009150A1F0FF0FBB1F661F771F881FC2F7ED
:101E20000EC0BA0F621F731F841F48F48795779501
:101E30006795B795F7959E3F08F0B3CF9395880FB8
:101E400008F09927EE0F97958795089504D0689428
:101E5000B111B5C0089598D088F09F5790F0B92F70
:101E60009927B751A0F0D1F0660F771F881F991FEF
:101E70001AF0BA95C9F712C0B13081F09FD0B1E025
:101E800008959CC0672F782F8827B85F39F0B93F35
:101E9000CCF3869577956795B395D9F73EF49095F1
:101EA0008095709561957F4F8F4F9F4F0895E8946F
:101EB00009C097FB3EF490958095709561957F4F92
:101EC0008F4F9F4F9923A9F0F92F96E9BB27939540
:101ED000F695879577956795B795F111F8CFFAF450
:101EE000BB0F11F460FF1BC06F5F7F4F8F4F9F4F81
:101EF00016C0882311F096E911C0772321F09EE8DF
:101F0000872F762F05C0662371F096E8862F70E044
:101F100060E02AF09A95660F771F881FDAF7880F1E
:101F20009695879597F9089597F99F6780E870E0EF
:101F300060E008959FEF80EC089500240A9416163F
:101F4000170618060906089500240A9412161306A7
:101F5000140605060895092E0394000C11F4882335
:101F600052F0BB0F40F4BF2B11F460FF04C06F5F51
:101F70007F4F8F4F9F4F089557FD9058440F551F27
:101F800059F05F3F71F04795880F97FB991F61F0FB
:101F90009F3F79F087950895121613061406551F72
:101FA000F2CF4695F1DF08C0161617061806991FDE
:101FB000F1CF86957105610508940895E894BB27D3
:101FC00066277727CB0197F908950BD0C4CFB5DFEB
:101FD00028F0BADF18F0952309F0A6CFABCF112473
:101FE000EECFCADFA0F3959FD1F3950F50E0551FB8
:101FF000629FF001729FBB27F00DB11D639FAA275E
:10200000F00DB11DAA1F649F6627B00DA11D661FAC
:10201000829F2227B00DA11D621F739FB00DA11DCD
:10202000621F839FA00D611D221F749F3327A00D87
:10203000611D231F849F600D211D822F762F6A2F23
:1020400011249F5750408AF0E1F088234AF0EE0FA8
:10205000FF1FBB1F661F771F881F91505040A9F7B5
:102060009E3F510570F060CFAACF5F3FECF3983EE2
:10207000DCF3869577956795B795F795E7959F5F1C
:10208000C1F7FE2B880F911D9695879597F90895B6
:10209000DB018F939F930E94F010BF91AF91A29F9D
:1020A000800D911DA39F900DB29F900D1124089556
:1020B000991B79E004C0991F961708F0961B881F9A
:1020C0007A95C9F780950895AA1BBB1B51E107C0FB
:1020D000AA1FBB1FA617B70710F0A61BB70B881FB8
:1020E000991F5A95A9F780959095BC01CD01089547
:1020F000A1E21A2EAA1BBB1BFD010DC0AA1FBB1F0C
:10210000EE1FFF1FA217B307E407F50720F0A21B7D
:10211000B30BE40BF50B661F771F881F991F1A94EA
:1021200069F760957095809590959B01AC01BD0114
:10213000CF010895052E97FB1EF400940E94B11064
:1021400057FD07D00E94781007FC03D04EF40C9482
:10215000B11050954095309521953F4F4F4F5F4FAF
:10216000089590958095709561957F4F8F4F9F4F03
:1021700008952F923F924F925F926F927F928F922B
:102180009F92AF92BF92CF92DF92EF92FF920F9306
:102190001F93CF93DF93CDB7DEB7CA1BDB0B0FB610
:1021A000F894DEBF0FBECDBF09942A8839884888CD
:1021B0005F846E847D848C849B84AA84B984C88463
:1021C000DF80EE80FD800C811B81AA81B981CE0F5A
:1021D000D11D0FB6F894DEBF0FBECDBFED0108953F
:1021E0000E940111A59F900DB49F900DA49F800D9A
:1021F000911D11240895EE0FFF1F0590F491E02D1D
:102200000994A29FB001B39FC001A39F700D811DCF
:102210001124911DB29F700D811D1124911D0895EF
:10222000CF93DF938230910510F482E090E0E0914B
:10223000C701F091C80120E030E0C0E0D0E0309765
:1022400011F14081518148175907C0F048175907CB
:1022500061F482819381209719F09B838A832BC03C
:102260009093C8018093C70126C02115310519F04C
:102270004217530718F49A01BE01DF01EF010280F3
:10228000F381E02DDCCF2115310509F1281B390B35
:102290002430310590F412968D919C91139761151D
:1022A000710521F0FB019383828304C09093C801E0
:1022B0008093C701FD01329644C0FD01E20FF31F78
:1022C00081939193225031092D933C933AC02091F0
:1022D000C5013091C601232B41F420912C0130918E
:1022E0002D013093C6012093C50120912A01309120
:1022F0002B012115310541F42DB73EB740912E0138
:1023000050912F01241B350BE091C501F091C601BE
:10231000E217F307A0F42E1B3F0B2817390778F0BC
:10232000AC014E5F5F4F2417350748F04E0F5F1F1B
:102330005093C6014093C5018193919302C0E0E0A0
:10234000F0E0CF01DF91CF9108950F931F93CF93CA
:10235000DF93009709F48CC0FC013297138212823C
:102360000091C7011091C8010115110581F4208168
:102370003181820F931F2091C5013091C60128172A
:10238000390779F5F093C601E093C50171C0D80112
:1023900040E050E0AE17BF0750F412962D913C91EB
:1023A0001397AD012115310509F1D901F3CF9D0135
:1023B000DA013383228360817181860F971F821730
:1023C000930769F4EC0128813981260F371F2E5FAE
:1023D0003F4F318320838A819B8193838283452B66
:1023E00029F4F093C801E093C70142C01396FC930F
:1023F000EE931297ED01499159919E01240F351FDB
:10240000E217F30771F480819181840F951F029682
:1024100011969C938E938281938113969C938E93B5
:102420001297E0E0F0E0D80112968D919C911397FD
:10243000009719F0F8018C01F6CF8D919C919801CD
:102440002E5F3F4F820F931F2091C5013091C6012F
:102450002817390769F4309729F41092C8011092AF
:10246000C70102C0138212821093C6010093C501F6
:10247000DF91CF911F910F91089510E0C6EAD0E04F
:1024800004C0FE010E94FD102296C83AD107C9F788
:04249000F894FFCFEE
:102494000101040400D007F4010F009C01B501CF31
:1024A40001EA0107022602470269028E02B502DE32
:1024B400020A0302080E0F1011120000C9012000C5
:1024C40046696E69736865642E00446573662E20E0
:1024D4003100507265737320420052656164792142
:0224E4000000F6
:00000001FF
